:102000000080002001410000EB400000EB40000098
:1020100000000000000000000000000000000000C0
:10202000000000000000000000000000EB40000085
:102030000000000000000000EB40000055410000DF
:10204000EB400000EB400000EB400000EB400000E4
:10205000EB400000EB400000EB400000ED400000D2
:10206000EB400000EB400000EB400000EB400000C4
:10207000EB4000003922000029220000EB40000064
:10208000EB400000EB400000EB400000EB400000A4
:1020900000000000EB400000EB400000EB400000BF
:1020A000EB400000EB400000EB400000EB40000084
:1020B0000000000010B5064C2378002B07D1054B1B
:1020C000002B02D0044800E000BF0123237010BDA4
:1020D000A00000200000000038500000044B10B5A4
:1020E000002B03D00349044800E000BF10BDC046E8
:1020F00000000000A40000203850000010B50F20A0
:1021000002F01EFA0A220100034801F0E4FF012058
:1021100002F064F810BDC04674050020962110B589
:102120008901024800F0FEFA10BDC0467405002087
:1021300070B50121202002F071FA0021202002F068
:10214000B9FA0A2002F04AF80021202002F066FACB
:10215000642002F043F8202002F0F2F996230500F3
:102160009B002F4C984222DD2E49200000F072FA8D
:10217000200000F055F903210B2002F0C7FA0321DB
:102180000C2002F0C3FA00226B21200000F07EF93F
:102190000121200000F0BCF91B21200000F0B8F95B
:1021A0002000032100F05CF9200000F04EF91D49E9
:1021B000200000F04FFA200000F032F903210B203C
:1021C00002F0A4FA03210C2002F0A0FA00226B21F5
:1021D000200000F05BF90721200000F099F9962318
:1021E0002B219B009D4200DD2039200000F090F95A
:1021F0000321200000F034F9200000F026F901212D
:102200001E2002F00BFA01211E2002F053FA0121D8
:102210001F2002F003FA01211F2002F04BFA70BDCB
:1022200054050020A086010010B5024801F09BFD76
:1022300010BDC046BC00002010B5024801F093FD5F
:1022400010BDC046000300207FB51949194800F0B1
:102250004BF81949194800F047F81949194800F096
:1022600043F81949194800F03FF8194C1949200062
:1022700000F03AF8184E1949300000F035F8012501
:1022800003233100019500930D220B33144801F014
:10229000E3FC1D230393013B02931A3B019300953A
:1022A00018331B2221000F4801F092FC7FBDC0466D
:1022B0000008004244050020000C00424C050020AC
:1022C0000010004254050020001400425C0500206C
:1022D00064050020001800426C050020001C00422C
:1022E000BC00002000030020002303710160704740
:1022F0009446F0B59E1E721E96416246056892078E
:102300002F6836063A4332432A60072505AC247805
:102310000068A4012940214342680024022B00D018
:102320005C03114321434160F0BD30B5C025036813
:10233000AD031C6812052A402243C0240904A402EC
:1023400021401143196003685A6814435C6030BD32
:102350000123026811680B43136003681A68D207EF
:10236000FCD4DA69D207F9D47047022302681168F5
:102370000B4313600268D3699B07FCD47047026863
:10238000137E9B0702D40379002BF9D1002303713C
:102390007047002203685A8370470368187E40071D
:1023A000C00F70470368187EC00970478023026819
:1023B0005B42117E0B43137670470368588B80078E
:1023C000C00F704702230268518B0B435383704741
:1023D0000368187EC007C00F70470368188DC0B22D
:1023E000704703681A7ED207FCD589B2198501238C
:1023F000037118007047012203689A757047012223
:1024000003681A7570470123026811680B43136053
:1024100003681A68D207FCD4DA69D207F9D4704786
:102420000223026811680B4313600368DA6992079C
:10243000FCD430215A8B8A43110010220A435A835C
:102440000268D3695B07FCD47047022102681368F5
:102450008B4313600268D3699B07FCD4704700006C
:10246000032230B5036811401C68074D5A680904FF
:102470002A40E4061143640F5960052C03D1026819
:10248000D3695B07FCD430BDFFFFFCFF70B5056866
:1024900004006B8B9B069B0F022B0DD06B8B0020D7
:1024A0009B069B0F032B32D06B8B9B0704D56B8B4A
:1024B0009B069B0F012B2AD16B6A49001143DB0A53
:1024C000C9B2DB020B436B622368002A13D11A7E68
:1024D000D207FCD55B8B9B069B0F022B04D04908CF
:1024E00000222000FFF7D2FF2368588B4007C30F5C
:1024F000012058400BE0187E8007C00FF4D11A7EEF
:10250000D207F8D5C022596892020A435A6070BDBA
:102510000368283319700268107EC007C30F508B00
:10252000002B06D1C007C00F08D1538B9B07F3D5F2
:1025300070474007C30F01205840F9E71800F7E73C
:102540000368214A30B593422FD0204A93422FD0BE
:102550001F4A93422FD01F4A93422FD01E4A9342C4
:102560002FD01E4A93421FD10E2319220121032589
:1025700099401B48C024016099082B40AB40FC35B2
:102580009D4089000918A4000859A843C0259D4012
:102590002B0003430B518023DB011A43114B5A805C
:1025A0005A7852B2002AFBDB30BD09231422DDE742
:1025B0000A231522DAE70B231622D7E70C2317226A
:1025C000D4E70D231822D1E700080042000C004296
:1025D000001000420014004200180042001C00429B
:1025E00000E100E0000C0040F8B504000F00160008
:1025F0001D00FFF7A5FF2000FFF7AAFE1C21BB006E
:102600000B4071072268090C0B4313608423226876
:102610009375012F1AD11021012E00D008390C4BCF
:1026200069431868C00002F029F9072221680240B6
:102630008B895203DB04DB0C13438B812268030478
:102640009089DB0C400B400318439081F8BDC046D5
:1026500010000020F8B504000F00FFF771FF200004
:10266000FFF7D1FE1422236879001A600C4B25680D
:102670001E68300002F002F90A490400300002F03E
:10268000FDF87D23FA215843C90002F0F7F8FF2333
:10269000241AE868053C1C4098430443EC60F8BDEC
:1026A0001000002040420F000020704770B50F2638
:1026B000CB1D013902003240D5B22C000009303464
:1026C000092A00DD07341C70013B8B42F2D170BD3A
:1026D00010B50C000B4B1868FFF7E8FF21000A4B00
:1026E00008311868FFF7E2FF2100084B1031186825
:1026F000FFF7DCFF2100064B18311868FFF7D6FF03
:10270000202010BD0CA0800040A0800044A08000CC
:1027100048A0800008B4024B9C46103808BC6047B3
:10272000D1260000704770473F20704713B56B46B5
:102730000268D9710733546819000122A04716BDF9
:1027400070B50A260B7892B06E44023305000B7008
:102750003C220021300002F05EF9394801AC0690BD
:10276000384824210790062020776846364AA1740D
:102770002281364A364BA281FD3AFF3A8018C17752
:10278000684623390630C17768460730C17702A80A
:10279000C1770720F277032608316944C87703A977
:1027A000CE7710212B366E443170092621851F31DA
:1027B00069440E700CA9053E0E703321238002235C
:1027C00069440B7006360DA90E7022493536A18674
:1027D0003B216E44307010A86274E27702703D3283
:1027E00069446A440B70137040210022E370237126
:1027F0006371A37341336B44218719705A702B7D29
:10280000C039A370A37263770133DBB2A3776A7D0B
:102810000B200D0068441543C577312068440370D0
:102820003A23501C6B441870412302320A436B4414
:102830001A7021004222084800F0FEFC12B070BD60
:10284000100104240206052409040000010200000E
:10285000080B000007050000D005002008B4024B5B
:102860009C46103808BC60474127000070B5027DC7
:102870000B790C0000259A420BD10B784E78A12BD6
:1028800009D1212E05D107221B491C4800F0D4FC98
:102890000135280070BD212BFBD1202E22D107222B
:1028A0001549164800F00AFC9622134BD20019680D
:1028B00091421DD1DB79DB071AD4FA2001F086FFA3
:1028C00000210E4800F0C0FD0125232EE1D1E37860
:1028D000A2781B0213430A4A00210848136000F043
:1028E000B3FDD6E7222EEFD18A78034BDA71DBE70E
:1028F00001F076FFE4E7C04604000020D005002088
:102900000000002008B4024B9C46103808BC604709
:102910006D28000010B508220021024802F07BF863
:1029200010BDC0460400002010B5417D006A013191
:1029300000F0FCFA034B1B6801335A1E9341181830
:1029400010BDC0460C00002010B5417D006A023168
:1029500000F002FB10BD10B5417D006A023100F0AD
:10296000C9FA10BD70B50D00417D0400130002319D
:102970002A00006A00F0B6FB002801D10123636041
:1029800070BD000010B5054C23685A1C04D10368C3
:102990005B69984703002060180010BD0C00002000
:1029A000074A0300106810B5411C03D001235B42A5
:1029B000136010BD597D186A013100F043FBF8E740
:1029C0000C00002010B501F0D3FBF423FF330024EA
:1029D000984207D9044B0A20DC79631E9C41E4B27B
:1029E00001F0FCFB200010BD040000200020704717
:1029F00070477047FA239B0010B583600F4B00228D
:102A0000C3820300283383610D4B04004260C2611E
:102A10001800503323610830631D21622060DA778B
:102A20008323A362813BE3628033236301F0C8FA0E
:102A30002100103101F095FA200010BD03020000C2
:102A4000444F0000022110B5094B1A68437D5B0119
:102A5000D318FF339C7A21439972437D0133DBB253
:102A60005B01D3180122FF33997A0A439A7210BD91
:102A7000880A002010B502490248FFF7BBFF10BDCD
:102A8000D005002074050020704710B5040001F047
:102A9000EFFB200010BD0000F0B5822919D1C3B2B0
:102AA000294D5A01AA189169284C80010C40C02177
:102AB00089052143916126490833401870215061EE
:102AC00028685B011A5C8A43110030220A431A54B9
:102AD000F0BD0029FCD1C026C1B21B4C4B01E3184C
:102AE0009A681A4DB6052A4032439A60194A800105
:102AF00082185A600A000727246808325201115DC3
:102B0000B9430F000121394311559F6910493D40D8
:102B100040182E439E6158617020115D814308006A
:102B200010210143115599680B48A21808408021D3
:102B30004903014399609968890B8903996040238F
:102B400011790B431371C3E7880A0020FFFFFF8F41
:102B5000FC050020BC070020FF3F00F0EFF31083CE
:102B600003600123436072B670470368002B02D1F3
:102B700062B6BFF36F8F704773B5836D0400002B8F
:102B80001BD10600A83635786846FFF7E7FF019BA2
:102B9000EDB2013B02D33578EDB2FAE76846019316
:102BA000FFF7E3FF002D01D1002076BD2300A43301
:102BB0001868A0342368C01AF7E76846FFF7CEFF0D
:102BC00022000025019BF432013B02D31578EDB2BF
:102BD000FAE768460193FFF7C8FF002DE4D0230011
:102BE000F0331868EC34E5E710B5436D4468DBB2A8
:102BF0005A01A21891680948083308408021490306
:102C00000143916091685B01890B8903916022689F
:102C1000D318402219790A431A7110BDFF3F00F002
:102C2000F7B5436D4268DBB2190004000831106843
:102C300049014118C979C90711D55B01D2189368B8
:102C40009B049B0C0CD12000FFF7CEFF63681A6831
:102C5000636DDBB208335B01D3187F22DA71F7BDF5
:102C6000E16D002923D12100A4310B60230001254F
:102C7000AC33E56568465360FFF770FF260020001F
:102C80002100019BA836013BF430F5315A1C33D0AA
:102C9000357002785F1ED2B20A700A78002A04D119
:102CA00020000193FFF7A0FFE8E73B00EEE72100DB
:102CB000F0310B600023E365230060335360684606
:102CC000FFF74CFF0125260020002100019BF43670
:102CD000013BA830F5315A1C0ED0357002785F1ECA
:102CE000D2B20A700A78002A04D120000193FFF7BB
:102CF0007BFFE8E73B00EEE768460193FFF735FF0F
:102D0000A4E737B56B46DC1D00230D00237001F0EE
:102D100057F9210001F0E2F82B6818182860207894
:102D20003EBD00000078002810D00121084B1B6830
:102D30001A898A431A810822198B0A431A830422AA
:102D4000198B0A431A830022024B1A607047C0464F
:102D5000880A0020800A002010B50F4A93699B0B57
:102D60009B03936113680222FF331A729879823AA7
:102D700002439A711A7A9207FCD57F24074A2140B0
:102D8000937A0800A3431900802301439172917A3A
:102D90005B420B43937210BD880A00200050004133
:102DA00010B50C0001F00CF9210001F0CAF8002860
:102DB00004D1034A93699B0B9B03936110BDC046EA
:102DC000880A0020F8B50D00832A19D1CBB23B4CFC
:102DD0005A01A21891693A48AD010840C0218905FD
:102DE00001439161374920686D187021083355619E
:102DF0005B011A5C8A43110040220A431A54F8BD51
:102E0000022A55D1304A8B009858002802D0036816
:102E10005B699847F82001F027FA0400274E2B4BF6
:102E20004660036040220021083001F0F4FD2200DA
:102E30000023A032A3646565E3642365A365E365AD
:102E40005360D3641372136013654C321372537260
:102E5000FF222B001340590171188868184F08335E
:102E60000740C020800538438860306807265B0132
:102E7000195CAD00B1430E00032131431954230006
:102E8000616D606811404901411860334B60616DAC
:102E900063680A401B6852019B180122FF33997A2C
:102EA00020000A439A72FFF79FFE074B5C51A6E78A
:102EB00011002800FFF7F0FDA1E7C046880A0020B6
:102EC000FFFFFF8FFC050020D4050020AC4F000061
:102ED00070B505000124064BA200D258002A06D086
:102EE000210028000134FFF76DFF0A2CF3D170BDDB
:102EF000A80500200B4BCAB20B488901C918530121
:102F0000C318596199690832890B8903996103686B
:102F100052019A180223D3715179823B0B435371AA
:102F20007047C046FC050020880A0020084B8A0034
:102F3000D05810B5002803D003689B68984710BD8F
:102F4000C9B2044B4901591888688004800CF6E71F
:102F5000D4050020880A002010B50C00FFF7E6FF1A
:102F600000280CD0064BE4B21B68083464011C191D
:102F7000802362795B42134363710223E37110BDC6
:102F8000880A0020F0B51C002A4B85B01B6807009A
:102F90000D000292002B4AD0274B8A00D0580028FF
:102FA00008D0036822005B6802999847040020005B
:102FB00005B0F0BD3800FFF7B9FF844204D92900FD
:102FC0003800FFF7B3FF04000121EBB21B4E03935F
:102FD0005B010193F21893689B0B9B039360019A2A
:102FE000336802989B18FF335A7A0A435A72144B7B
:102FF000A901C918220001F005FD002CD7D0290035
:103000003800FFF793FF0028D1D14021039B32689D
:1030100008335B01D3181879014319710121D97163
:10302000019BD318FF339A7A0A439A72BFE70124AF
:103030006442BCE7800A0020D4050020880A0020F2
:10304000BC07002013B56B46DC1D22000123FFF7EF
:1030500099FF012801D1207816BD01204042FBE7ED
:1030600070B5CBB2124A13485C0189018918021964
:1030700051609168104D08330D4080214903294368
:10308000402591609168890B8903916001685A011C
:103090008A1816793543157195796D06FCD55B0153
:1030A000C918CB79DB07FCD500198068C0B270BDA8
:1030B000BC070020880A0020FF3F00F070B50D001B
:1030C00000211400FFF7CCFFA04200D9200000230C
:1030D0000349A34203D0CA5CEA540133F9E770BD47
:1030E000BC070020F0B51E003A4B85B01B680F00EE
:1030F0000192002B35D08023DB019E4231D8002580
:10310000354B8A01D3180293002E2CD0334B1B6809
:103110000393FF233B401C0000930834039B64018E
:103120001C19A379DB0921D02D4B2E49186801F019
:10313000A5FB2D4B1721584301F0A0FB2B4BE27947
:10314000920713D4DA5D002A01D10138F7D20122A7
:10315000DA55009B5A01214B9B189A69920B9203F6
:103160009A6101256D42280005B0F0BD00221F4B79
:103170003400DA553F2E09D9009B40245A01174BE1
:103180009B188022996912060A439A6122000199CC
:10319000029801F037FC009BA1045A010F4B890CE7
:1031A0009B18029A2D195A619A69361B920B920349
:1031B0000A439A61009B039A08335B01D3180222E9
:1031C000DA715979823A0A435A71019B1B190193AA
:1031D0009AE7C046800A0020FC050020880A0020EB
:1031E0001000002040420F0070110100F105002086
:1031F00070B50D001C000D4BAE01F618110030002B
:10320000220001F0FFFBEDB209496D014D196E611D
:10321000AB69084A20001340AB61AB69A2049B0B69
:10322000920C9B031343AB6170BDC046FC050020AC
:10323000880A0020FF3F00F0F7B5104B01901B7883
:103240000F001500002B0CD10D4B16001C78002C24
:1032500009D00C4E0C4834882018641901F0D2FBB8
:1032600034802800FEBD002EFBD03A193300002127
:103270000198FFF7BDFF2418361AF4E77C090020F7
:103280007D0A00207E0A00207D090020F8B50F008D
:1032900016000024012A26D9100001F09FFB05002A
:1032A000380001F07BFC032302220130400028702B
:1032B0006B7096420DD9397800290AD0531CDBB2C5
:1032C0000137A9549E4203D00232EC54D2B2F0E747
:1032D000320029000548FFF7AFFF441EA041C4B2E9
:1032E000280001F085FB2000F8BDC046D005002075
:1032F000F0B50024012685B0184B0F0069461E70FA
:1033000005000094FFF7FDFC154B01A90B806A3BFB
:10331000FF3BCB715A330B72009B8C7109334B808E
:103320000E4B4E7108711C703A00092F0FD00D4FD3
:1033300009223E700C4E280000943480FFF77CFF79
:1033400069462800FFF7DDFC328808493C702800F8
:10335000FFF772FF012005B0F0BDC0467C090020D8
:10336000090200007D0A00207E0A00207D0900205D
:1033700070B5CE7892B005000C00022E0BD18B797F
:10338000C9792C4809021943FFF7B2FF411E884151
:10339000C0B212B070BD00F013FE210000F0B2FD0B
:1033A000002803D0C117081AC00FF2E7012E0ED172
:1033B000E279A37912021A431F49112A13D8D2B213
:1033C000002A10D02800FFF737FF0120E1E7032E85
:1033D000DFD1A378002B08D1E279A37912021A4336
:1033E0001649032AEBD90A78ECE7022B08D1E279D7
:1033F000A379120212491A432800FFF747FFC8E7D2
:10340000012B05D1E279A37912021A430D49F3E7A2
:10341000032BBED14122010001A801F0FCFA00F00B
:10342000CFFD01A900F07EFDE279A37912021A43D3
:1034300001A9E1E7D0050020EE4F0000DE4F0000BB
:10344000C84F0000E24F0000CBB204495B01C9182D
:103450008B699B0B9B038B617047C046880A0020D9
:1034600037B5050048780C000B2810D801F0FCF99E
:10347000061B0F2B0F404561494C5A5D097801AA84
:10348000002906D1022311802800FFF7B1FE012098
:103490003EBD00231380284B1B78012B00D11370F5
:1034A00002230021F0E78A780023012A03D101AA30
:1034B0001380224BF0E7204A1370214A93699B0B3B
:1034C0009B039361E3E78C78012C06D100211B4B11
:1034D00001AA1C7011702300D6E70120002CD7D15F
:1034E000154B174A187093699B0B9B039361CFE7A9
:1034F00089782800FFF730FCC9E72800FFF738FF7C
:10350000C6E701230F4ACCE70B780020DB06BFD1CA
:103510002800FFF7DDFCA2780A4B0B481A60FFF782
:1035200091FACAE70123094ABBE78A78074B1A6078
:10353000C3E70020ACE7C046F0050020F8050020F6
:10354000880A0020800A002074050020840A0020D8
:103550003A4BF7B51E780500002E5FD1384C236832
:103560009A8B12070DD5082231009A833000FFF79D
:1035700093FA10222368FF33997A0A439A72314BE7
:103580001E6023689A8B520701D504229A83FF3369
:103590001A7A920603D52022597A0A435A721A7A65
:1035A000D20623D569460800274AC0CAC0C0A2680F
:1035B000920B9203A2604022587902435A71602311
:1035C0000A7828001A422AD1FFF74AFF2368FF33FE
:1035D000002827D08022997952420A439A711A7A98
:1035E000520603D54022597A0A435A727F26012592
:1035F0002368FF331E722F00236808377F01DB1911
:10360000DB79002B07D0114BAA00D05800280DD031
:1036100003681B6898470135082DECD1F7BDFFF70B
:10362000BFFBD3E720210A4A9171D8E72900094856
:10363000FFF7DFF92368DF19FE71ECE77D0A002050
:10364000880A0020800A0020BC070020D405002042
:10365000FF5000417405002010B50248FFF778FFC5
:1036600010BDC046D005002080235B0003800023EE
:10367000436007330372704783000148C0187047E6
:10368000A8050020836C402B09D03F22036CC15455
:10369000036C013313400364836C0133836470470C
:1036A000F7B505006846FFF759FA00264022019B4E
:1036B000013B02D32E6D961BFAE768460193FFF794
:1036C00054FAAB6D6846002B4FD1FFF747FA29003B
:1036D000019BA831013B5A1C0CD00C785A1EE4B255
:1036E000002C05D168460193FFF73FFA2000FEBD8C
:1036F0001300F0E7684601930024FFF736FA2A002A
:103700002900A0321368A431B4420ED00868984250
:103710000BD92800591CEB18116060331978083058
:10372000C9B2FFF7AFFF0134E9E709689942DDD17B
:10373000002313600133AB656846FFF70FFA2F00D3
:103740002A000021019BA837013BF532581CC9D043
:10375000397010785E1E002805D011702800019382
:10376000FFF742FAEBE73300F0E7FFF7F7F929003C
:10377000019BF431013B5A1C06D00C785A1EE4B26E
:10378000002CAFD01300F6E7684601930024FFF742
:10379000ECF92A002900EC321368F031B44202D06F
:1037A000086898421DD8096899429FD1002368464D
:1037B0001360AB65FFF7D2F92F002A000021019BAF
:1037C000F437013BF532581C00D18BE73970107883
:1037D0005E1E002811D0117028000193FFF704FA33
:1037E000EAE72800591CEB181160AC33197808304F
:1037F000C9B2FFF747FF0134CBE73300E3E710B569
:103800000400FFF74DFF206D10BD10B50400FFF759
:1038100047FF236D002B03D0E36CE418207A10BD22
:1038200001204042FBE7F7B517000E000400FFF748
:1038300037FF6846FFF792F93F2200259446019B27
:10384000013B5A1C19D0BD4215D2226D002A12D05C
:103850000121226D4942002A0AD06046E26CA2187A
:10386000117AE26C01320240E264226D013A226573
:1038700071550135E7E7013BE3E768460193FFF740
:1038800074F92800FEBD0000014B024A1A6070471F
:10389000880A0020005000412023F7B5474A050060
:1038A000D1690F200B43D361012245490B781343A3
:1038B0000B70444B19788143197006211C78214301
:1038C000197041490C7822430A701A7802401A7024
:1038D000602219780A431A703C4B3D4A5A805F783F
:1038E000FF09FCD13B4800F03DFC01233A4C3B4E24
:1038F0002268300011780B43137080223900520087
:1039000001F089F822689378DB07FCD456621F2601
:10391000334B1B68590B980C9B01314030405B0FB7
:10392000B14200D105211F2800D10238072B00D158
:10393000043B31408901178D01912A4930400F40E5
:10394000019939431185118D0700B14308003843AF
:103950001085118D1803244B7F260B4003430C2048
:1039600013850823D17881430B430321D370226848
:10397000D3788B4301390B43D370226813783340DB
:103980001370042322681678334313702268C1240D
:103990001389A40083431548138103591B021B0A92
:1039A00003518023036013781148194301231170D8
:1039B0002B700021FEF7B6FEF7BDC04600040040A4
:1039C000584400413C44004159440041000C00402F
:1039D0000640000059360000880A00208C0A0020AA
:1039E000246080003FF8FFFFFF8FFFFF00E100E051
:1039F000740500200120704710B50368014A1B6A56
:103A0000984710BD13040000FC30006A70478723FC
:103A10009B00C018C36880204000C01A7047030094
:103A2000FC331A6A002A03D0DB69C018007D704796
:103A300001204042FBE710B504000069FEF788FC56
:103A400022000023FC329361D3611362872292002B
:103A5000A4186360A360E36010BD872310B59B00CA
:103A6000C218D368002BFCD10069FEF788FC10BD9A
:103A7000F02001403039484248417047F0231B0193
:103A80001940802306209B0099420AD00133FF335E
:103A90000130994205D0802302385B00994200D062
:103AA000002070470F2001400020012903D0023977
:103AB000481E8141481C70478B23F0B5182685B0FD
:103AC00002919B000400C05C330008214343324D47
:103AD0001700EB18595600F019FE304B0821E05C36
:103AE00033004343EB18595600F010FE2C4BE25CB8
:103AF0000393022A09D11133E05CFF2805D0082185
:103B00004643AE19715600F001FE8C26B600A05D4A
:103B1000FF2819D0012100F081FD1822A35D214961
:103B20005A43AB56AD18DB0158188D2189006050FF
:103B30001D4901225B188E218900635069688A4003
:103B40008F21890062501A600122029B11002069B6
:103B5000FEF74AFD39002000FFF790FF390005000D
:103B60002000FFF79FFF390006002000FFF780FFCD
:103B700033000090290020690122FEF7B9FB0B4BAE
:103B80002069E25C039BE15CFEF7CFFB2069FEF756
:103B9000ECFB05B0F0BDC046E44B00002D02000078
:103BA0002F02000018440041144400412E0200007E
:103BB000802210B504005200002100F02CFF2300E9
:103BC0000022FC335A6020009A60DA6010BD0000C9
:103BD000F0B585B01D000AAB1B78040000930BAB59
:103BE0001B78160001930CAB1B780F0002930DABF2
:103BF0001B78039300234360FA239B008360124BDE
:103C0000083303601430FFF7D3FF20002130FF306A
:103C1000FFF7CEFF8B236A469B002761E6540B4BD0
:103C20001278E5540A4B2000E2546A46094B127997
:103C3000E2546A46127A0133E2546A46127B103328
:103C4000E25405B0F0BDC046005000002D02000057
:103C50002E0200002F020000F7B51D0008AB1B78F4
:103C60000400009309AB1B78160001930023436006
:103C7000FA239B008360114B0F000833036014305C
:103C8000FFF796FF20002130FF30FFF791FF8B23D5
:103C90006A469B002761E654094B1278E554094BAC
:103CA0002000E2546A46084B1279E2548C22313BE0
:103CB000FF3B9200A3541032A354FEBD00500000FD
:103CC0002D0200002E0200002F020000F7B5EFF3D6
:103CD000108300930123019372B680260200FF2512
:103CE000019BFC327600013B5C1C0FD0D4685F1E48
:103CF000B44209D054680155546801342C405460D2
:103D0000D4680134D460EEE73B00EDE768460193E8
:103D1000FEF72BFFF7BD13B5EFF3108300930123DC
:103D2000019372B6019B5A1E0192002B15D003001D
:103D3000FC33DA68002A0DD09A68845C9A680132F4
:103D4000D2B29A60DA68013ADA606846FEF70DFF8F
:103D5000200016BD01246442F7E701246846FEF7FF
:103D600004FF6442F4E710B504000069FEF725FB88
:103D7000002805D02069FEF730FB2069FEF722FB02
:103D80002069FEF70AFB00281BD02069FEF725FBFF
:103D9000010020001430FFF799FF8C239B00E35CA7
:103DA000FF2B0ED02300FC331A6A80235B009B1A82
:103DB000092B06DC8D238F229B009200E358A2582A
:103DC0001A602069FEF704FB00280ED087239B00B1
:103DD000E318DB68002B14D020002130FF30FFF700
:103DE0009AFFC1B22069FEF7FCFA2069FEF7DAFA01
:103DF000002805D02069FEF7D9FA2069FEF7C9FA34
:103E000010BD2069FEF7FBFAEFE70000F8B50400EB
:103E100000690D00FEF7DCFA87239B00E6180028F6
:103E200002D0F368002B34D001278022F3685200BF
:103E3000934223D1EFF310833B4210D1174B5B68C1
:103E4000DB05DB0DF1D0103B5BB2002B10DAF13A51
:103E50001340083B9B08124A9B009B181B68206973
:103E6000FEF7B6FA0028E0D02000FFF77CFFDCE781
:103E70009B08C0330B4A9B009B58F0E72000213081
:103E8000FF302900FFF722FF2069FEF7B4FA012076
:103E9000F8BD29002069FEF7A4FAF8E700ED00E07C
:103EA0001CED00E000E100E010B504001430FFF765
:103EB00032FF8C239B00E35CFF2B0ED02300FC33EE
:103EC0001A6A80235B009B1A0A2B06DD8E238F2241
:103ED0009B009200E358A2581A6010BD70B50E0006
:103EE00000254468002C0BD0236831005B6820005B
:103EF0009847002802DB2D18E468F3E701256D429E
:103F0000280070BD70B50D004468002C08D02368EF
:103F100029009B6820009847002802D1E468F4E754
:103F2000200070BD70B50D004468002C07D02368D8
:103F300029002000DB689847E4682D18F5E72C700D
:103F400070BD70B50D004468002C08D023682900AE
:103F50001B6820009847002802D1E468F4E720009D
:103F600070BDF8B542788B790D00017A9B1804007A
:103F700000208B4222DC6368834219D165600026F1
:103F800023786A71EA792B719B182370AB79B3425D
:103F900013D9AB68B7006078DF19FFF76DFB3B689A
:103FA000013603606378F6B201336370EEE70B000D
:103FB000D9680029FBD1DD60E1E70120F8BD0000F0
:103FC00070B50126054D064C2B68334203D1200005
:103FD000FFF74AFB2E60200070BDC0468C0B00200E
:103FE000900B0020F7B506000D000C008B18019314
:103FF000019B671B9C4207D0336821781B68300007
:10400000984701340028F3D13800FEBD70B5040094
:1040100008000D0000F0C2FD2368020029005B6863
:104020002000984770BD10B50B1E02D0FFF7EEFFC1
:104030000300180010BD10B503681B68984710BD39
:1040400010B50249FFF7E2FF10BDC0463450000032
:10405000F0B58BB06B461500002205330600DA7709
:104060000800012D00D80A2509AC290000F08CFCBD
:10407000CAB2130037330700DBB2092902D8130094
:104080003033DBB2013C2370002FEED12100300031
:10409000FFF7C9FF0BB0F0BDF8B506000C00151E08
:1040A00004D10368C9B21B689847F8BD0A2A0CD12D
:1040B00000290BDA2D21FFF7BEFF614207002A001D
:1040C0003000FFF7C5FF3818EFE7D2B2210030000B
:1040D000FFF7BEFFE9E770B50400FFF7DDFF05005D
:1040E0002000FFF7ADFF401970BDFEE7034B10B590
:1040F0001B68002B00D0984710BDC0469C0B0020C9
:1041000070B50F490F4CA14204D100F0B5F800F092
:104110008BF8FEE70C4D00238D42F6D0CA18E81844
:10412000A24205D3094B8242EFD00949002204E0A4
:10413000006804331060F1E704C38B42FCD3E4E76A
:1041400000000020A00000203C500000A000002043
:10415000B40B002010B500F064F8002801D100F085
:1041600055F810BD014B18607047C0469C0B0020ED
:10417000014B18687047C046A00B0020F7B51348E4
:10418000012284461249134C8E68636805689B0EB1
:104190001340019288686268019F920E3A40674618
:1041A0003F6893420ED1BD420CD186420AD35B19BF
:1041B000FA254868AD00861B07486B437043000D25
:1041C000C018FEBD3D0013000600E3E7A00B002071
:1041D00010E000E000ED00E05555000070B5041E51
:1041E00010D0FFF7CBFF050000F01AF8FFF7C6FF6D
:1041F000054B401B9842F7D9FA23013C9B00ED1870
:10420000002CF3D170BDC046E703000010B5034A8F
:1042100013680133136000F0EBFA10BDA00B00200F
:10422000704700207047000010B500F0D5F800F08E
:10423000B1FBFDF77DFF0120FFF7D0FF084C200008
:10424000FFF72AFB2000FEF76DFDFDF767FFFDF786
:1042500055FF044B002BFAD000E000BFF7E7C04643
:10426000D00500200000000010B500F0B7FB10BD25
:1042700010B500F0BDFB10BD1E2270B54648474981
:10428000436893431C3A1343436008238C692343D8
:104290008B61434C434B9C829C8A14439C82DC6818
:1042A0001442FCD00124404A14701578254203D0F2
:1042B00055786DB2002DF8DB01249460547864B217
:1042C000002CFBDB394C5460547864B2002CFBDBCF
:1042D0008224E4015480547864B2002CFBDB022475
:1042E0009C840E34DD682542FCD0314CDC62102405
:1042F000DD682542FCD09D8C2E4C2C439C841024E0
:10430000DD682542FCD002249D8C80262C439C84B1
:104310004024DD683542FCD0DD682542F9D0102408
:10432000DD682542FCD000249460547864B2002CEF
:10433000FBDB214C5460547864B2002CFBDB1C6A1C
:104340001E4D2C4080251C621C6AAC431C6203235A
:1043500093601B4B536053785BB2002BFBDB002355
:10436000FF240B72174A4B728B72CB72164B1A607A
:10437000164B174A1B6811689A065B01C90E234049
:10438000520F12020B431343124A138580234268D3
:104390001343436070BDC04600400041000400402C
:1043A0000C06000000080040000C00400105010060
:1043B000B905FF7D040A000000070300FFFCFFFFB2
:1043C00003060100006CDC02100000202460800065
:1043D0002060800000400042FA21314B10B518687F
:1043E000890000F04BFA2F4B0138984256D82E49DD
:1043F0002E4A4860C020136A00061B021B0A0343B2
:104400001362002407238C600B608021136A090665
:104410001B021B0A0B431362FC22254B196A0A4339
:104420001A62FC22196A92010A431A62A022196ACE
:10443000D2020A431A62E0B20021013400F0EEF821
:104440000F2CF8D11B4B1C005A7852B2002AFBDB10
:10445000194A5A80194B1A00597EC9090129FBD003
:10446000E421C90099803F21D970537EDB09012BDB
:10447000FBD0C02300205B011361907000F02EF888
:1044800063785BB2002BFBDB0D4B0E4A6380D37964
:10449000DB09012BFBD04123537010BDFEE7C04662
:1044A00010000020FFFFFF0010E000E000ED00E042
:1044B00000040040000C00401E400000004000428C
:1044C0002140000000480042914202D002D98A1ADD
:1044D000D0407047521A9040FBE70000164A00B5E2
:1044E0001300517EC9090129FBD00138042816D8D0
:1044F0001969124A0A400F211A615A788A4300F05A
:10450000B3F90308060B0300110001220A435A7095
:1045100000BD11000322F9E711000222F6E7F023A3
:1045200011691B050B430F21136153788B4319004D
:1045300002230B435370EBE700400042FFFFFFF004
:1045400010B504000E2801D80F34E4B20121200078
:1045500000F0DCF81823102163432B4CE41861565B
:10456000002901D014290DD1284B1800DA79D2097D
:10457000012AFBD002241A78A2431A70C379DB09FE
:10458000012BFBD022480300427ED209012AFBD036
:104590001F2402692140A2430A4302615A7ED209C4
:1045A000012AFBD0022219780A431A705A7ED209D6
:1045B000012AFBD00222197B0A431A731A7ED20702
:1045C000FCD501221A765A7ED209012AFBD002229A
:1045D000197B0A431A731A7ED207FCD5588B80B216
:1045E0005A7ED209012AFBD002211A788A431A7016
:1045F0005A7ED209012AFBD0064B1A68064B19686D
:10460000FFF762FF10BDC046E44B000000480042C7
:10461000004000421800002014000020182330B58C
:104620001D00040045430820204A55192856013032
:1046300014D0032912D808006343D156D31800F0D0
:1046400013F902280E1B5868CB010221184A9B1847
:104650001A1840321170012282405A6030BD5868E9
:10466000CB010621124A9B181A1840321170012200
:1046700082405A609A61F1E75868CB0106210C4AE2
:104680009B181A1840321170012282405A605A61F8
:10469000E4E75868CB010221054A9B181A184032FA
:1046A0001170012282409A60D8E7C046E44B0000B6
:1046B000004400411823F0B508245843114A131848
:1046C0001C5701341BD0012635005F688356BD405E
:1046D0000D4ADB019A18906805420BD10C00601E50
:1046E0008441D2194032107834400336A400B043DC
:1046F00020431070044A9B18002901D15D61F0BD70
:104700009D61FCE7E44B0000004400411822424355
:10471000F8B52C4E0300B218127A52B214000132CE
:104720000ED0481C00240C280AD800F09DF8072061
:10473000202020202020200B0B0B0B0001246442A2
:104740002000F8BD092905D10021D8B2FFF766FF86
:104750000024F5E70A2902D1D8B20839F6E7002487
:104760000B29EDD1D8B20A39FFF758FFE8E7182036
:104770004343F2185568F3562C00134ADB016E08C8
:1047800017389B18C9B204409E19002C0DD00F2475
:1047900030363278090122401143C9B25B193170B9
:1047A00040331A7810431870D2E732000F273032A6
:1047B00016785B19BE433143117040331A781043A9
:1047C0001870BDE7E44B00000044004110B5040040
:1047D000FEF70EF9014B1C6010BDC0461C00002006
:1047E0000122024B52421A607047C0461C00002052
:1047F000164A10B51368591C26D0013B1360002BD4
:1048000022D172B6124B134A0433934213D9124A7F
:1048100001211000147D0C42FCD02021148BFF31AB
:104820009B085B0021431183D3610C4B1380012350
:10483000027D1A42FCD0BFF34F8F094B094ADA6060
:10484000BFF34F8FC046FDE710BDC0461C000020DF
:1048500000200000030200000040004102A5FFFF0D
:1048600000ED00E00400FA0502B471464908490071
:10487000095C49008E4402BC7047C04600224308D0
:104880008B4274D303098B425FD3030A8B4244D318
:10489000030B8B4228D3030C8B420DD3FF2209025A
:1048A00012BA030C8B4202D31212090265D0030B19
:1048B0008B4219D300E0090AC30B8B4201D3CB030F
:1048C000C01A5241830B8B4201D38B03C01A524151
:1048D000430B8B4201D34B03C01A5241030B8B4253
:1048E00001D30B03C01A5241C30A8B4201D3CB023E
:1048F000C01A5241830A8B4201D38B02C01A524123
:10490000430A8B4201D34B02C01A5241030A8B4225
:1049100001D30B02C01A5241CDD2C3098B4201D33D
:10492000CB01C01A524183098B4201D38B01C01ABB
:10493000524143098B4201D34B01C01A5241030932
:104940008B4201D30B01C01A5241C3088B4201D3E1
:10495000CB00C01A524183088B4201D38B00C01A8E
:10496000524143088B4201D34B00C01A5241411AB5
:1049700000D20146524110467047FFE701B50020C2
:1049800000F006F802BDC0460029F7D076E7704770
:104990007047C04670B500260C4D0D4C641BA4102A
:1049A000A64209D1002600F011F90A4D0A4C641BF9
:1049B000A410A64205D170BDB300EB58984701364C
:1049C000EEE7B300EB5898470136F2E78400002089
:1049D00084000020840000209400002010B5034BC8
:1049E0000100186800F06AF810BDC04620000020E1
:1049F00010B5034B0100186800F016F810BDC04652
:104A000020000020002310B59A4200D110BDCC5CDC
:104A1000C4540133F8E703001218934200D17047E1
:104A200019700133F9E7000070B50500002910D0B6
:104A30000C1F2368002B00DAE418280000F0B5F8FA
:104A40001D4A1368002B05D163601460280000F034
:104A5000ADF870BDA34209D9216860188342F3D133
:104A600018685B6841182160EEE713005A68002A55
:104A700001D0A242F9D919685818A0420BD1206878
:104A80000918581819608242E0D11068526841181C
:104A900019605A60DAE7A04202D90C232B60D5E7EF
:104AA00021686018824203D1106852684118216061
:104AB00062605C60CAE7C046A40B0020032370B5A7
:104AC000CD1C9D43083506000C2D1ED20C25A94295
:104AD0001DD8300000F069F8254A1468210000292B
:104AE00019D1244C2368002B03D1300000F044F886
:104AF00020602900300000F03FF8431C2BD10C232C
:104B00003000336000F052F803E0002DDFDA0C23B0
:104B10003360002070BD0B685B1B19D40B2B03D9CD
:104B20000B60CC18256003E04B688C420DD11360FC
:104B3000300000F03BF8200007220B30231D90438B
:104B4000C31AE7D05A42E250E4E763600C00EFE793
:104B50000C004968C3E70323C41C9C43A042E1D076
:104B6000211A300000F008F8431CDBD1C7E7C0462B
:104B7000A40B0020A80B0020002370B5064C0500F4
:104B80000800236000F014F8431C03D12368002BB5
:104B900000D02B6070BDC046B00B00200023C25C6B
:104BA0000133002AFBD1581E704770477047000040
:104BB000044A1368002B00D1034B1818106018002A
:104BC0007047C046AC0B0020B40B0020F8B5C046BF
:104BD000F8BC08BC9E467047F8B5C046F8BC08BC97
:104BE0009E4670470000000016000000080000000C
:104BF0001C000000FF00000400040600000000008C
:104C000017000000080000001C000000FF00010465
:104C100001040700000000000A0000000800000076
:104C20001C000000120000010001FF000000000055
:104C30000B000000080000001C0000001300010130
:104C40000101FF00010000000A0000000800000050
:104C50001C000000FF00000500050A000100000024
:104C60000B000000080000001C000000FF00010510
:104C700001050B0000000000140000000800000007
:104C80002C000000FF0002000200040000000000F1
:104C900015000000080000002C000000FF000300C9
:104CA00003000500000000001000000002000000EA
:104CB0001C000000FF0000020002000000000000D5
:104CC000110000000200000004000000FF00FFFFD0
:104CD000FFFF0100000000001300000002000000C0
:104CE0001C000000FF0001030103FF0000000000A2
:104CF0000800000003000000040000001000FFFF97
:104D0000FFFF100000000000090000000300000089
:104D1000040000001100FFFFFFFFFF000100000082
:104D2000170000000300000004000000FF00FFFF68
:104D3000FFFFFF000100000016000000030000005C
:104D400004000000FF00FFFFFFFFFF000000000065
:104D50000200000001000000060000000000FFFF4C
:104D6000FFFFFF0001000000020000000100000042
:104D7000040000000A00FFFFFFFF02000100000026
:104D80000300000001000000040000000B00FFFF12
:104D9000FFFF03000000000004000000010000000D
:104DA0001C000000040000000000FF0000000000E4
:104DB00005000000010000001C00000005000100CB
:104DC0000100FF00000000000600000001000000DC
:104DD000040000000600FFFFFFFFFF0000000000CE
:104DE0000700000001000000040000000700FFFFB2
:104DF000FFFFFF0000000000180000000600000098
:104E000000000000FF00FFFFFFFFFF0000000000A8
:104E1000190000000600000000000000FF00FFFF76
:104E2000FFFFFF000000000012000000080000006B
:104E300004000000FF00FFFFFFFFFF000000000074
:104E4000030000000800000004000000FF00FFFF56
:104E5000FFFFFF00000000000C0000000300000046
:104E600000000000FF00FFFFFFFFFF000000000048
:104E70000D0000000300000000000000FF00FFFF25
:104E8000FFFFFF00000000000E000000080000000F
:104E900000000000FF00FFFFFFFFFF000000000018
:104EA0000F0000000300000000000000FF00FFFFF3
:104EB000FFFFFF00000000001B00000008000000D2
:104EC00000000000FF00FFFFFFFF0F0001000000D7
:104ED0000800000008000000060000000200FFFFBC
:104EE000FFFFFF00010000000900000001000000BA
:104EF0001800000003000104010409000000000084
:104F0000000000000800000000000000FF00FFFF9C
:104F1000FFFFFF000000000001000000080000008B
:104F200000000000FF00FFFFFFFFFF000000000087
:104F30001C0000000800000004000000FF00FFFF4C
:104F4000FFFFFF0000000000000000002D27000010
:104F500065290000292700004929000029290000AF
:104F6000A12900008529000025270000272700002F
:104F700015290000C529000057290000412700001D
:104F8000A92600006D280000D1260000F0FFFFFFD9
:104F900000000000052900005D280000ED29000048
:104FA000152700000000000000000000212C000078
:104FB00027380000FF3700000B380000892A000066
:104FC0008B2A0000792B000041726475696E6F2096
:104FD0004D4B52205769466920313031300004036F
:104FE000090441726475696E6F204C4C43001201D4
:104FF0000002EF020140412354800001010203013D
:1050000000000000000000000D3E0000E53F000031
:105010000F3A00005B3A0000093A0000A93E000088
:105020001F3A0000F9390000B93A0000373A000091
:0C503000F53900000D0A0000000000002F
:10503C00FFFFFFFF00C2010000000800FFFFFFFFA1
:10504C0040420F000A0000000A000000FFFFFFFFB3
:10505C002400002000000000000000000000000000
:10506C000000000000000000000000000000000034
:10507C000000000000000000000000000000000024
:10508C000000000000000000000000000000000014
:10509C000000000000000000000000000000000004
:1050AC0000000000000000000000000000000000F4
:1050BC0000000000DD20000049220000752A0000DD
:1050CC0089380000B520000000000000000000003E
:0400000300004101B7
:00000001FF
